{
  "_format": "hh-sol-artifact-1",
  "contractName": "Stake",
  "sourceName": "contracts/Stake.sol",
  "abi": [
    {
      "inputs": [],
      "stateMutability": "nonpayable",
      "type": "constructor"
    },
    {
      "anonymous": false,
      "inputs": [
        {
          "indexed": false,
          "internalType": "uint256",
          "name": "id",
          "type": "uint256"
        },
        {
          "indexed": false,
          "internalType": "string",
          "name": "name",
          "type": "string"
        },
        {
          "indexed": false,
          "internalType": "string",
          "name": "sector",
          "type": "string"
        },
        {
          "indexed": false,
          "internalType": "string",
          "name": "city",
          "type": "string"
        },
        {
          "indexed": false,
          "internalType": "string",
          "name": "entBack",
          "type": "string"
        },
        {
          "indexed": false,
          "internalType": "uint256",
          "name": "noCity",
          "type": "uint256"
        },
        {
          "indexed": false,
          "internalType": "uint256",
          "name": "marketSize",
          "type": "uint256"
        },
        {
          "indexed": false,
          "internalType": "address",
          "name": "_address",
          "type": "address"
        },
        {
          "indexed": false,
          "internalType": "string",
          "name": "stage",
          "type": "string"
        }
      ],
      "name": "ProjectCreate",
      "type": "event"
    },
    {
      "inputs": [
        {
          "internalType": "uint256",
          "name": "",
          "type": "uint256"
        }
      ],
      "name": "allProjects",
      "outputs": [
        {
          "internalType": "uint256",
          "name": "id",
          "type": "uint256"
        },
        {
          "internalType": "string",
          "name": "name",
          "type": "string"
        },
        {
          "internalType": "string",
          "name": "sector",
          "type": "string"
        },
        {
          "internalType": "string",
          "name": "city",
          "type": "string"
        },
        {
          "internalType": "string",
          "name": "entBack",
          "type": "string"
        },
        {
          "internalType": "uint256",
          "name": "noCity",
          "type": "uint256"
        },
        {
          "internalType": "uint256",
          "name": "marketSize",
          "type": "uint256"
        },
        {
          "internalType": "address",
          "name": "_address",
          "type": "address"
        },
        {
          "internalType": "string",
          "name": "stage",
          "type": "string"
        }
      ],
      "stateMutability": "view",
      "type": "function"
    },
    {
      "inputs": [],
      "name": "deposit",
      "outputs": [],
      "stateMutability": "payable",
      "type": "function"
    },
    {
      "inputs": [],
      "name": "getAllProject",
      "outputs": [
        {
          "components": [
            {
              "internalType": "uint256",
              "name": "id",
              "type": "uint256"
            },
            {
              "internalType": "string",
              "name": "name",
              "type": "string"
            },
            {
              "internalType": "string",
              "name": "sector",
              "type": "string"
            },
            {
              "internalType": "string",
              "name": "city",
              "type": "string"
            },
            {
              "internalType": "string",
              "name": "entBack",
              "type": "string"
            },
            {
              "internalType": "uint256",
              "name": "noCity",
              "type": "uint256"
            },
            {
              "internalType": "uint256",
              "name": "marketSize",
              "type": "uint256"
            },
            {
              "internalType": "address",
              "name": "_address",
              "type": "address"
            },
            {
              "internalType": "string",
              "name": "stage",
              "type": "string"
            }
          ],
          "internalType": "struct Stake.Project[]",
          "name": "",
          "type": "tuple[]"
        }
      ],
      "stateMutability": "view",
      "type": "function"
    },
    {
      "inputs": [
        {
          "internalType": "address",
          "name": "_address",
          "type": "address"
        }
      ],
      "name": "getProject",
      "outputs": [
        {
          "components": [
            {
              "internalType": "uint256",
              "name": "id",
              "type": "uint256"
            },
            {
              "internalType": "string",
              "name": "name",
              "type": "string"
            },
            {
              "internalType": "string",
              "name": "sector",
              "type": "string"
            },
            {
              "internalType": "string",
              "name": "city",
              "type": "string"
            },
            {
              "internalType": "string",
              "name": "entBack",
              "type": "string"
            },
            {
              "internalType": "uint256",
              "name": "noCity",
              "type": "uint256"
            },
            {
              "internalType": "uint256",
              "name": "marketSize",
              "type": "uint256"
            },
            {
              "internalType": "address",
              "name": "_address",
              "type": "address"
            },
            {
              "internalType": "string",
              "name": "stage",
              "type": "string"
            }
          ],
          "internalType": "struct Stake.Project",
          "name": "",
          "type": "tuple"
        }
      ],
      "stateMutability": "view",
      "type": "function"
    },
    {
      "inputs": [
        {
          "internalType": "uint256",
          "name": "id",
          "type": "uint256"
        },
        {
          "internalType": "string",
          "name": "name",
          "type": "string"
        },
        {
          "internalType": "string",
          "name": "sector",
          "type": "string"
        },
        {
          "internalType": "string",
          "name": "city",
          "type": "string"
        },
        {
          "internalType": "string",
          "name": "entBack",
          "type": "string"
        },
        {
          "internalType": "uint256",
          "name": "noCity",
          "type": "uint256"
        },
        {
          "internalType": "uint256",
          "name": "marketSize",
          "type": "uint256"
        },
        {
          "internalType": "string",
          "name": "stage",
          "type": "string"
        }
      ],
      "name": "listProject",
      "outputs": [],
      "stateMutability": "nonpayable",
      "type": "function"
    },
    {
      "inputs": [],
      "name": "lockingPeriod",
      "outputs": [
        {
          "internalType": "uint256",
          "name": "",
          "type": "uint256"
        }
      ],
      "stateMutability": "view",
      "type": "function"
    },
    {
      "inputs": [
        {
          "internalType": "address",
          "name": "",
          "type": "address"
        }
      ],
      "name": "projects",
      "outputs": [
        {
          "internalType": "uint256",
          "name": "id",
          "type": "uint256"
        },
        {
          "internalType": "string",
          "name": "name",
          "type": "string"
        },
        {
          "internalType": "string",
          "name": "sector",
          "type": "string"
        },
        {
          "internalType": "string",
          "name": "city",
          "type": "string"
        },
        {
          "internalType": "string",
          "name": "entBack",
          "type": "string"
        },
        {
          "internalType": "uint256",
          "name": "noCity",
          "type": "uint256"
        },
        {
          "internalType": "uint256",
          "name": "marketSize",
          "type": "uint256"
        },
        {
          "internalType": "address",
          "name": "_address",
          "type": "address"
        },
        {
          "internalType": "string",
          "name": "stage",
          "type": "string"
        }
      ],
      "stateMutability": "view",
      "type": "function"
    },
    {
      "inputs": [
        {
          "internalType": "address",
          "name": "",
          "type": "address"
        }
      ],
      "name": "userDeposits",
      "outputs": [
        {
          "internalType": "uint256",
          "name": "",
          "type": "uint256"
        }
      ],
      "stateMutability": "view",
      "type": "function"
    },
    {
      "inputs": [],
      "name": "withdraw",
      "outputs": [],
      "stateMutability": "nonpayable",
      "type": "function"
    },
    {
      "inputs": [
        {
          "internalType": "address",
          "name": "",
          "type": "address"
        }
      ],
      "name": "withdrawalTimestamps",
      "outputs": [
        {
          "internalType": "uint256",
          "name": "",
          "type": "uint256"
        }
      ],
      "stateMutability": "view",
      "type": "function"
    }
  ],
  "bytecode": "0x6080604052620151806002553480156200001857600080fd5b50620000436040518060600160405280602281526020016200279a602291396200004960201b60201c565b62000243565b620000e981604051602401620000609190620001f0565b6040516020818303038152906040527f41304fac000000000000000000000000000000000000000000000000000000007bffffffffffffffffffffffffffffffffffffffffffffffffffffffff19166020820180517bffffffffffffffffffffffffffffffffffffffffffffffffffffffff8381831617835250505050620000ec60201b60201c565b50565b62000112816200010d6200011560201b6200161e176200013660201b60201c565b60201c565b50565b60006a636f6e736f6c652e6c6f679050600080835160208501845afa505050565b6200014a60201b6200163f17819050919050565b6200015462000214565b565b600081519050919050565b600082825260208201905092915050565b60005b838110156200019257808201518184015260208101905062000175565b60008484015250505050565b6000601f19601f8301169050919050565b6000620001bc8262000156565b620001c8818562000161565b9350620001da81856020860162000172565b620001e5816200019e565b840191505092915050565b600060208201905081810360008301526200020c8184620001af565b905092915050565b7f4e487b7100000000000000000000000000000000000000000000000000000000600052605160045260246000fd5b61254780620002536000396000f3fe6080604052600436106100915760003560e01c8063550066d511610059578063550066d514610195578063840e78fd146101c0578063d0e30db014610205578063d70ed4981461020f578063f98707051461023a57610091565b80630ba36dcd14610096578063141ebd83146100d35780633ccfd60b14610110578063467ffc621461012757806353b3194c14610150575b600080fd5b3480156100a257600080fd5b506100bd60048036038101906100b8919061171d565b610277565b6040516100ca9190611763565b60405180910390f35b3480156100df57600080fd5b506100fa60048036038101906100f5919061171d565b61028f565b6040516101079190611763565b60405180910390f35b34801561011c57600080fd5b506101256102a7565b005b34801561013357600080fd5b5061014e600480360381019061014991906118f0565b6104cc565b005b34801561015c57600080fd5b5061017760048036038101906101729190611a32565b6107e3565b60405161018c99989796959493929190611aed565b60405180910390f35b3480156101a157600080fd5b506101aa610b09565b6040516101b79190611763565b60405180910390f35b3480156101cc57600080fd5b506101e760048036038101906101e2919061171d565b610b0f565b6040516101fc99989796959493929190611aed565b60405180910390f35b61020d610e25565b005b34801561021b57600080fd5b50610224610ec8565b6040516102319190611da8565b60405180910390f35b34801561024657600080fd5b50610261600480360381019061025c919061171d565b611276565b60405161026e9190611eab565b60405180910390f35b60006020528060005260406000206000915090505481565b60016020528060005260406000206000915090505481565b6000600160003373ffffffffffffffffffffffffffffffffffffffff1673ffffffffffffffffffffffffffffffffffffffff1681526020019081526020016000205414610329576040517f08c379a000000000000000000000000000000000000000000000000000000000815260040161032090611f19565b60405180910390fd5b600254600160003373ffffffffffffffffffffffffffffffffffffffff1673ffffffffffffffffffffffffffffffffffffffff168152602001908152602001600020546103769190611f68565b4210156103b8576040517f08c379a00000000000000000000000000000000000000000000000000000000081526004016103af90611fe8565b60405180910390fd5b60008060003373ffffffffffffffffffffffffffffffffffffffff1673ffffffffffffffffffffffffffffffffffffffff1681526020019081526020016000205490506000811161043e576040517f08c379a000000000000000000000000000000000000000000000000000000000815260040161043590612054565b60405180910390fd5b42600160003373ffffffffffffffffffffffffffffffffffffffff1673ffffffffffffffffffffffffffffffffffffffff168152602001908152602001600020819055503373ffffffffffffffffffffffffffffffffffffffff166108fc829081150290604051600060405180830381858888f193505050501580156104c8573d6000803e3d6000fd5b5050565b6040518061012001604052808981526020018881526020018781526020018681526020018581526020018481526020018381526020013373ffffffffffffffffffffffffffffffffffffffff16815260200182815250600360003373ffffffffffffffffffffffffffffffffffffffff1673ffffffffffffffffffffffffffffffffffffffff1681526020019081526020016000206000820151816000015560208201518160010190816105809190612280565b5060408201518160020190816105969190612280565b5060608201518160030190816105ac9190612280565b5060808201518160040190816105c29190612280565b5060a0820151816005015560c0820151816006015560e08201518160070160006101000a81548173ffffffffffffffffffffffffffffffffffffffff021916908373ffffffffffffffffffffffffffffffffffffffff1602179055506101008201518160080190816106349190612280565b509050506004600360003373ffffffffffffffffffffffffffffffffffffffff1673ffffffffffffffffffffffffffffffffffffffff168152602001908152602001600020908060018154018082558091505060019003906000526020600020906009020160009091909190915060008201548160000155600182018160010190816106c09190612368565b50600282018160020190816106d59190612368565b50600382018160030190816106ea9190612368565b50600482018160040190816106ff9190612368565b5060058201548160050155600682015481600601556007820160009054906101000a900473ffffffffffffffffffffffffffffffffffffffff168160070160006101000a81548173ffffffffffffffffffffffffffffffffffffffff021916908373ffffffffffffffffffffffffffffffffffffffff1602179055506008820181600801908161078f9190612368565b5050507f2fe25f8fbb77faeb7a5cff270d5b129f99f2c496cc91511a9f31207fe1093afe8888888888888833896040516107d199989796959493929190611aed565b60405180910390a15050505050505050565b600481815481106107f357600080fd5b906000526020600020906009020160009150905080600001549080600101805461081c906120a3565b80601f0160208091040260200160405190810160405280929190818152602001828054610848906120a3565b80156108955780601f1061086a57610100808354040283529160200191610895565b820191906000526020600020905b81548152906001019060200180831161087857829003601f168201915b5050505050908060020180546108aa906120a3565b80601f01602080910402602001604051908101604052809291908181526020018280546108d6906120a3565b80156109235780601f106108f857610100808354040283529160200191610923565b820191906000526020600020905b81548152906001019060200180831161090657829003601f168201915b505050505090806003018054610938906120a3565b80601f0160208091040260200160405190810160405280929190818152602001828054610964906120a3565b80156109b15780601f10610986576101008083540402835291602001916109b1565b820191906000526020600020905b81548152906001019060200180831161099457829003601f168201915b5050505050908060040180546109c6906120a3565b80601f01602080910402602001604051908101604052809291908181526020018280546109f2906120a3565b8015610a3f5780601f10610a1457610100808354040283529160200191610a3f565b820191906000526020600020905b815481529060010190602001808311610a2257829003601f168201915b5050505050908060050154908060060154908060070160009054906101000a900473ffffffffffffffffffffffffffffffffffffffff1690806008018054610a86906120a3565b80601f0160208091040260200160405190810160405280929190818152602001828054610ab2906120a3565b8015610aff5780601f10610ad457610100808354040283529160200191610aff565b820191906000526020600020905b815481529060010190602001808311610ae257829003601f168201915b5050505050905089565b60025481565b6003602052806000526040600020600091509050806000015490806001018054610b38906120a3565b80601f0160208091040260200160405190810160405280929190818152602001828054610b64906120a3565b8015610bb15780601f10610b8657610100808354040283529160200191610bb1565b820191906000526020600020905b815481529060010190602001808311610b9457829003601f168201915b505050505090806002018054610bc6906120a3565b80601f0160208091040260200160405190810160405280929190818152602001828054610bf2906120a3565b8015610c3f5780601f10610c1457610100808354040283529160200191610c3f565b820191906000526020600020905b815481529060010190602001808311610c2257829003601f168201915b505050505090806003018054610c54906120a3565b80601f0160208091040260200160405190810160405280929190818152602001828054610c80906120a3565b8015610ccd5780601f10610ca257610100808354040283529160200191610ccd565b820191906000526020600020905b815481529060010190602001808311610cb057829003601f168201915b505050505090806004018054610ce2906120a3565b80601f0160208091040260200160405190810160405280929190818152602001828054610d0e906120a3565b8015610d5b5780601f10610d3057610100808354040283529160200191610d5b565b820191906000526020600020905b815481529060010190602001808311610d3e57829003601f168201915b5050505050908060050154908060060154908060070160009054906101000a900473ffffffffffffffffffffffffffffffffffffffff1690806008018054610da2906120a3565b80601f0160208091040260200160405190810160405280929190818152602001828054610dce906120a3565b8015610e1b5780601f10610df057610100808354040283529160200191610e1b565b820191906000526020600020905b815481529060010190602001808311610dfe57829003601f168201915b5050505050905089565b680332ca1b67940c0000341015610e71576040517f08c379a0000000000000000000000000000000000000000000000000000000008152600401610e68906124c2565b60405180910390fd5b346000803373ffffffffffffffffffffffffffffffffffffffff1673ffffffffffffffffffffffffffffffffffffffff1681526020019081526020016000206000828254610ebf9190611f68565b92505081905550565b60606004805480602002602001604051908101604052809291908181526020016000905b8282101561126d57838290600052602060002090600902016040518061012001604052908160008201548152602001600182018054610f2a906120a3565b80601f0160208091040260200160405190810160405280929190818152602001828054610f56906120a3565b8015610fa35780601f10610f7857610100808354040283529160200191610fa3565b820191906000526020600020905b815481529060010190602001808311610f8657829003601f168201915b50505050508152602001600282018054610fbc906120a3565b80601f0160208091040260200160405190810160405280929190818152602001828054610fe8906120a3565b80156110355780601f1061100a57610100808354040283529160200191611035565b820191906000526020600020905b81548152906001019060200180831161101857829003601f168201915b5050505050815260200160038201805461104e906120a3565b80601f016020809104026020016040519081016040528092919081815260200182805461107a906120a3565b80156110c75780601f1061109c576101008083540402835291602001916110c7565b820191906000526020600020905b8154815290600101906020018083116110aa57829003601f168201915b505050505081526020016004820180546110e0906120a3565b80601f016020809104026020016040519081016040528092919081815260200182805461110c906120a3565b80156111595780601f1061112e57610100808354040283529160200191611159565b820191906000526020600020905b81548152906001019060200180831161113c57829003601f168201915b5050505050815260200160058201548152602001600682015481526020016007820160009054906101000a900473ffffffffffffffffffffffffffffffffffffffff1673ffffffffffffffffffffffffffffffffffffffff1673ffffffffffffffffffffffffffffffffffffffff1681526020016008820180546111dc906120a3565b80601f0160208091040260200160405190810160405280929190818152602001828054611208906120a3565b80156112555780601f1061122a57610100808354040283529160200191611255565b820191906000526020600020905b81548152906001019060200180831161123857829003601f168201915b50505050508152505081526020019060010190610eec565b50505050905090565b61127e611649565b600360008373ffffffffffffffffffffffffffffffffffffffff1673ffffffffffffffffffffffffffffffffffffffff16815260200190815260200160002060405180610120016040529081600082015481526020016001820180546112e3906120a3565b80601f016020809104026020016040519081016040528092919081815260200182805461130f906120a3565b801561135c5780601f106113315761010080835404028352916020019161135c565b820191906000526020600020905b81548152906001019060200180831161133f57829003601f168201915b50505050508152602001600282018054611375906120a3565b80601f01602080910402602001604051908101604052809291908181526020018280546113a1906120a3565b80156113ee5780601f106113c3576101008083540402835291602001916113ee565b820191906000526020600020905b8154815290600101906020018083116113d157829003601f168201915b50505050508152602001600382018054611407906120a3565b80601f0160208091040260200160405190810160405280929190818152602001828054611433906120a3565b80156114805780601f1061145557610100808354040283529160200191611480565b820191906000526020600020905b81548152906001019060200180831161146357829003601f168201915b50505050508152602001600482018054611499906120a3565b80601f01602080910402602001604051908101604052809291908181526020018280546114c5906120a3565b80156115125780601f106114e757610100808354040283529160200191611512565b820191906000526020600020905b8154815290600101906020018083116114f557829003601f168201915b5050505050815260200160058201548152602001600682015481526020016007820160009054906101000a900473ffffffffffffffffffffffffffffffffffffffff1673ffffffffffffffffffffffffffffffffffffffff1673ffffffffffffffffffffffffffffffffffffffff168152602001600882018054611595906120a3565b80601f01602080910402602001604051908101604052809291908181526020018280546115c1906120a3565b801561160e5780601f106115e35761010080835404028352916020019161160e565b820191906000526020600020905b8154815290600101906020018083116115f157829003601f168201915b5050505050815250509050919050565b60006a636f6e736f6c652e6c6f679050600080835160208501845afa505050565b6116476124e2565b565b60405180610120016040528060008152602001606081526020016060815260200160608152602001606081526020016000815260200160008152602001600073ffffffffffffffffffffffffffffffffffffffff168152602001606081525090565b6000604051905090565b600080fd5b600080fd5b600073ffffffffffffffffffffffffffffffffffffffff82169050919050565b60006116ea826116bf565b9050919050565b6116fa816116df565b811461170557600080fd5b50565b600081359050611717816116f1565b92915050565b600060208284031215611733576117326116b5565b5b600061174184828501611708565b91505092915050565b6000819050919050565b61175d8161174a565b82525050565b60006020820190506117786000830184611754565b92915050565b6117878161174a565b811461179257600080fd5b50565b6000813590506117a48161177e565b92915050565b600080fd5b600080fd5b6000601f19601f8301169050919050565b7f4e487b7100000000000000000000000000000000000000000000000000000000600052604160045260246000fd5b6117fd826117b4565b810181811067ffffffffffffffff8211171561181c5761181b6117c5565b5b80604052505050565b600061182f6116ab565b905061183b82826117f4565b919050565b600067ffffffffffffffff82111561185b5761185a6117c5565b5b611864826117b4565b9050602081019050919050565b82818337600083830152505050565b600061189361188e84611840565b611825565b9050828152602081018484840111156118af576118ae6117af565b5b6118ba848285611871565b509392505050565b600082601f8301126118d7576118d66117aa565b5b81356118e7848260208601611880565b91505092915050565b600080600080600080600080610100898b031215611911576119106116b5565b5b600061191f8b828c01611795565b985050602089013567ffffffffffffffff8111156119405761193f6116ba565b5b61194c8b828c016118c2565b975050604089013567ffffffffffffffff81111561196d5761196c6116ba565b5b6119798b828c016118c2565b965050606089013567ffffffffffffffff81111561199a576119996116ba565b5b6119a68b828c016118c2565b955050608089013567ffffffffffffffff8111156119c7576119c66116ba565b5b6119d38b828c016118c2565b94505060a06119e48b828c01611795565b93505060c06119f58b828c01611795565b92505060e089013567ffffffffffffffff811115611a1657611a156116ba565b5b611a228b828c016118c2565b9150509295985092959890939650565b600060208284031215611a4857611a476116b5565b5b6000611a5684828501611795565b91505092915050565b600081519050919050565b600082825260208201905092915050565b60005b83811015611a99578082015181840152602081019050611a7e565b60008484015250505050565b6000611ab082611a5f565b611aba8185611a6a565b9350611aca818560208601611a7b565b611ad3816117b4565b840191505092915050565b611ae7816116df565b82525050565b600061012082019050611b03600083018c611754565b8181036020830152611b15818b611aa5565b90508181036040830152611b29818a611aa5565b90508181036060830152611b3d8189611aa5565b90508181036080830152611b518188611aa5565b9050611b6060a0830187611754565b611b6d60c0830186611754565b611b7a60e0830185611ade565b818103610100830152611b8d8184611aa5565b90509a9950505050505050505050565b600081519050919050565b600082825260208201905092915050565b6000819050602082019050919050565b611bd28161174a565b82525050565b600082825260208201905092915050565b6000611bf482611a5f565b611bfe8185611bd8565b9350611c0e818560208601611a7b565b611c17816117b4565b840191505092915050565b611c2b816116df565b82525050565b600061012083016000830151611c4a6000860182611bc9565b5060208301518482036020860152611c628282611be9565b91505060408301518482036040860152611c7c8282611be9565b91505060608301518482036060860152611c968282611be9565b91505060808301518482036080860152611cb08282611be9565b91505060a0830151611cc560a0860182611bc9565b5060c0830151611cd860c0860182611bc9565b5060e0830151611ceb60e0860182611c22565b50610100830151848203610100860152611d058282611be9565b9150508091505092915050565b6000611d1e8383611c31565b905092915050565b6000602082019050919050565b6000611d3e82611b9d565b611d488185611ba8565b935083602082028501611d5a85611bb9565b8060005b85811015611d965784840389528151611d778582611d12565b9450611d8283611d26565b925060208a01995050600181019050611d5e565b50829750879550505050505092915050565b60006020820190508181036000830152611dc28184611d33565b905092915050565b600061012083016000830151611de36000860182611bc9565b5060208301518482036020860152611dfb8282611be9565b91505060408301518482036040860152611e158282611be9565b91505060608301518482036060860152611e2f8282611be9565b91505060808301518482036080860152611e498282611be9565b91505060a0830151611e5e60a0860182611bc9565b5060c0830151611e7160c0860182611bc9565b5060e0830151611e8460e0860182611c22565b50610100830151848203610100860152611e9e8282611be9565b9150508091505092915050565b60006020820190508181036000830152611ec58184611dca565b905092915050565b7f596f75206861766520616c72656164792077697468647261776e000000000000600082015250565b6000611f03601a83611a6a565b9150611f0e82611ecd565b602082019050919050565b60006020820190508181036000830152611f3281611ef6565b9050919050565b7f4e487b7100000000000000000000000000000000000000000000000000000000600052601160045260246000fd5b6000611f738261174a565b9150611f7e8361174a565b9250828201905080821115611f9657611f95611f39565b5b92915050565b7f4c6f636b696e6720706572696f64206e6f74206f766572207965740000000000600082015250565b6000611fd2601b83611a6a565b9150611fdd82611f9c565b602082019050919050565b6000602082019050818103600083015261200181611fc5565b9050919050565b7f4e6f2062616c616e636520746f20776974686472617700000000000000000000600082015250565b600061203e601683611a6a565b915061204982612008565b602082019050919050565b6000602082019050818103600083015261206d81612031565b9050919050565b7f4e487b7100000000000000000000000000000000000000000000000000000000600052602260045260246000fd5b600060028204905060018216806120bb57607f821691505b6020821081036120ce576120cd612074565b5b50919050565b60008190508160005260206000209050919050565b60006020601f8301049050919050565b600082821b905092915050565b6000600883026121367fffffffffffffffffffffffffffffffffffffffffffffffffffffffffffffffff826120f9565b61214086836120f9565b95508019841693508086168417925050509392505050565b6000819050919050565b600061217d6121786121738461174a565b612158565b61174a565b9050919050565b6000819050919050565b61219783612162565b6121ab6121a382612184565b848454612106565b825550505050565b600090565b6121c06121b3565b6121cb81848461218e565b505050565b5b818110156121ef576121e46000826121b8565b6001810190506121d1565b5050565b601f82111561223457612205816120d4565b61220e846120e9565b8101602085101561221d578190505b612231612229856120e9565b8301826121d0565b50505b505050565b600082821c905092915050565b600061225760001984600802612239565b1980831691505092915050565b60006122708383612246565b9150826002028217905092915050565b61228982611a5f565b67ffffffffffffffff8111156122a2576122a16117c5565b5b6122ac82546120a3565b6122b78282856121f3565b600060209050601f8311600181146122ea57600084156122d8578287015190505b6122e28582612264565b86555061234a565b601f1984166122f8866120d4565b60005b82811015612320578489015182556001820191506020850194506020810190506122fb565b8683101561233d5784890151612339601f891682612246565b8355505b6001600288020188555050505b505050505050565b600081549050612361816120a3565b9050919050565b81810361237657505061244e565b61237f82612352565b67ffffffffffffffff811115612398576123976117c5565b5b6123a282546120a3565b6123ad8282856121f3565b6000601f8311600181146123dc57600084156123ca578287015490505b6123d48582612264565b865550612447565b601f1984166123ea876120d4565b96506123f5866120d4565b60005b8281101561241d578489015482556001820191506001850194506020810190506123f8565b8683101561243a5784890154612436601f891682612246565b8355505b6001600288020188555050505b5050505050505b565b7f596f75206d757374206465706f7369742065786163746c79203630206574686560008201527f7273000000000000000000000000000000000000000000000000000000000000602082015250565b60006124ac602283611a6a565b91506124b782612450565b604082019050919050565b600060208201905081810360008301526124db8161249f565b9050919050565b7f4e487b7100000000000000000000000000000000000000000000000000000000600052605160045260246000fdfea2646970667358221220c6389dfd847004ea0d730eebadb728048301dd63c37e09e7b6a96129ede3c28f64736f6c634300081300335374616b696e6720736d61727420636f6e747261637420696d706c656d656e746564",
  "linkReferences": {},
  "deployedLinkReferences": {}
}